{
  "contractName": "Shops",
  "abi": [
    {
      "constant": true,
      "inputs": [
        {
          "name": "",
          "type": "uint256"
        }
      ],
      "name": "shopsMapping",
      "outputs": [
        {
          "name": "id",
          "type": "uint256"
        },
        {
          "name": "name",
          "type": "string"
        },
        {
          "name": "lat",
          "type": "string"
        },
        {
          "name": "long",
          "type": "string"
        },
        {
          "name": "createdTime",
          "type": "string"
        }
      ],
      "payable": false,
      "stateMutability": "view",
      "type": "function"
    },
    {
      "constant": true,
      "inputs": [],
      "name": "shopCount",
      "outputs": [
        {
          "name": "",
          "type": "uint256"
        }
      ],
      "payable": false,
      "stateMutability": "view",
      "type": "function"
    },
    {
      "anonymous": false,
      "inputs": [
        {
          "indexed": false,
          "name": "id",
          "type": "uint256"
        },
        {
          "indexed": false,
          "name": "name",
          "type": "string"
        },
        {
          "indexed": false,
          "name": "lat",
          "type": "string"
        },
        {
          "indexed": false,
          "name": "long",
          "type": "string"
        },
        {
          "indexed": false,
          "name": "createdTime",
          "type": "string"
        }
      ],
      "name": "shopCreated",
      "type": "event"
    },
    {
      "constant": false,
      "inputs": [
        {
          "name": "_name",
          "type": "string"
        },
        {
          "name": "_lat",
          "type": "string"
        },
        {
          "name": "_long",
          "type": "string"
        },
        {
          "name": "_createdTime",
          "type": "string"
        }
      ],
      "name": "createShop",
      "outputs": [],
      "payable": false,
      "stateMutability": "nonpayable",
      "type": "function"
    }
  ],
  "bytecode": "0x60806040526000805534801561001457600080fd5b50610b05806100246000396000f3fe608060405234801561001057600080fd5b50600436106100415760003560e01c806303648b76146100465780630a747ed514610238578063664f03b014610256575b600080fd5b6100726004803603602081101561005c57600080fd5b81019080803590602001909291905050506104d6565b6040518086815260200180602001806020018060200180602001858103855289818151815260200191508051906020019080838360005b838110156100c45780820151818401526020810190506100a9565b50505050905090810190601f1680156100f15780820380516001836020036101000a031916815260200191505b50858103845288818151815260200191508051906020019080838360005b8381101561012a57808201518184015260208101905061010f565b50505050905090810190601f1680156101575780820380516001836020036101000a031916815260200191505b50858103835287818151815260200191508051906020019080838360005b83811015610190578082015181840152602081019050610175565b50505050905090810190601f1680156101bd5780820380516001836020036101000a031916815260200191505b50858103825286818151815260200191508051906020019080838360005b838110156101f65780820151818401526020810190506101db565b50505050905090810190601f1680156102235780820380516001836020036101000a031916815260200191505b50995050505050505050505060405180910390f35b61024061076c565b6040518082815260200191505060405180910390f35b6104d46004803603608081101561026c57600080fd5b810190808035906020019064010000000081111561028957600080fd5b82018360208201111561029b57600080fd5b803590602001918460018302840111640100000000831117156102bd57600080fd5b91908080601f016020809104026020016040519081016040528093929190818152602001838380828437600081840152601f19601f8201169050808301925050505050505091929192908035906020019064010000000081111561032057600080fd5b82018360208201111561033257600080fd5b8035906020019184600183028401116401000000008311171561035457600080fd5b91908080601f016020809104026020016040519081016040528093929190818152602001838380828437600081840152601f19601f820116905080830192505050505050509192919290803590602001906401000000008111156103b757600080fd5b8201836020820111156103c957600080fd5b803590602001918460018302840111640100000000831117156103eb57600080fd5b91908080601f016020809104026020016040519081016040528093929190818152602001838380828437600081840152601f19601f8201169050808301925050505050505091929192908035906020019064010000000081111561044e57600080fd5b82018360208201111561046057600080fd5b8035906020019184600183028401116401000000008311171561048257600080fd5b91908080601f016020809104026020016040519081016040528093929190818152602001838380828437600081840152601f19601f820116905080830192505050505050509192919290505050610772565b005b6001602052806000526040600020600091509050806000015490806001018054600181600116156101000203166002900480601f0160208091040260200160405190810160405280929190818152602001828054600181600116156101000203166002900480156105885780601f1061055d57610100808354040283529160200191610588565b820191906000526020600020905b81548152906001019060200180831161056b57829003601f168201915b505050505090806002018054600181600116156101000203166002900480601f0160208091040260200160405190810160405280929190818152602001828054600181600116156101000203166002900480156106265780601f106105fb57610100808354040283529160200191610626565b820191906000526020600020905b81548152906001019060200180831161060957829003601f168201915b505050505090806003018054600181600116156101000203166002900480601f0160208091040260200160405190810160405280929190818152602001828054600181600116156101000203166002900480156106c45780601f10610699576101008083540402835291602001916106c4565b820191906000526020600020905b8154815290600101906020018083116106a757829003601f168201915b505050505090806004018054600181600116156101000203166002900480601f0160208091040260200160405190810160405280929190818152602001828054600181600116156101000203166002900480156107625780601f1061073757610100808354040283529160200191610762565b820191906000526020600020905b81548152906001019060200180831161074557829003601f168201915b5050505050905085565b60005481565b60008081548092919060010191905055506040518060a0016040528060005481526020018581526020018481526020018381526020018281525060016000805481526020019081526020016000206000820151816000015560208201518160010190805190602001906107e6929190610a34565b506040820151816002019080519060200190610803929190610a34565b506060820151816003019080519060200190610820929190610a34565b50608082015181600401908051906020019061083d929190610a34565b509050507fe0b1d1afed1b1c53a3635db4d5db41dc99041c482762c37c12cb9a3eb7c08d97600054858585856040518086815260200180602001806020018060200180602001858103855289818151815260200191508051906020019080838360005b838110156108bb5780820151818401526020810190506108a0565b50505050905090810190601f1680156108e85780820380516001836020036101000a031916815260200191505b50858103845288818151815260200191508051906020019080838360005b83811015610921578082015181840152602081019050610906565b50505050905090810190601f16801561094e5780820380516001836020036101000a031916815260200191505b50858103835287818151815260200191508051906020019080838360005b8381101561098757808201518184015260208101905061096c565b50505050905090810190601f1680156109b45780820380516001836020036101000a031916815260200191505b50858103825286818151815260200191508051906020019080838360005b838110156109ed5780820151818401526020810190506109d2565b50505050905090810190601f168015610a1a5780820380516001836020036101000a031916815260200191505b50995050505050505050505060405180910390a150505050565b828054600181600116156101000203166002900490600052602060002090601f016020900481019282601f10610a7557805160ff1916838001178555610aa3565b82800160010185558215610aa3579182015b82811115610aa2578251825591602001919060010190610a87565b5b509050610ab09190610ab4565b5090565b610ad691905b80821115610ad2576000816000905550600101610aba565b5090565b9056fea165627a7a723058208b7d50ccd4ec73faf1469f0b05f9fa77a22a8dd8b48d64b84115b2dd7d465b8e0029",
  "source": "pragma solidity ^0.5.0;\n\ncontract Shops {\n    uint public shopCount = 0;\n\n    struct Shop {\n        uint id;\n        string name;\n        string lat;\n        string long;\n        string createdTime;\n    }\n\n    event shopCreated (\n        uint id,\n        string name,\n        string lat,\n        string long,\n        string createdTime\n    );\n\n    mapping(uint => Shop) public shopsMapping;\n\n    function createShop(string memory _name, string memory _lat, string memory _long, string memory _createdTime) public {\n        shopCount ++;\n        shopsMapping[shopCount] = Shop(shopCount, _name, _lat, _long, _createdTime);\n        emit shopCreated(shopCount, _name, _lat, _long, _createdTime);\n    }\n}",
  "sourcePath": "/home/roman/Projects/titanium_blockchain_test/contracts/Shops.sol",
  "compiler": {
    "name": "solc",
    "version": "0.5.8+commit.23d335f2.Emscripten.clang"
  },
  "schemaVersion": "3.0.16",
  "updatedAt": "2019-09-20T17:13:18.038Z",
  "devdoc": {
    "methods": {}
  },
  "userdoc": {
    "methods": {}
  }
}